S00B00004144432E7372656351
S113200070240020C9240000C5240000C524000059
S113201000000000000000000000000000000000BC
S1132020000000000000000000000000C5240000C3
S11320300000000000000000C5240000C5240000CA
S1132040C5240000C5240000C5240000C5240000E8
S1132050C5240000C5240000C5240000C5240000D8
S1132060C5240000C5240000C5240000C5240000C8
S1132070C5240000C5240000C5240000C5240000B8
S1132080C5240000C5240000C5240000C5240000A8
S1132090C5240000C5240000C5240000C524000098
S11320A0C5240000C5240000C5240000C524000088
S11320B00000000010B5064C2378002B07D1054B17
S11320C0002B02D0044800E000BF0123237010BDA0
S11320D02C04002000000000602D0000084B10B507
S11320E0002B03D00749084800E000BF07480368F5
S11320F0002B00D110BD064B002BFBD09847F9E70D
S11321000000000030040020602D0000602D00005D
S113211000000000234A116880235B020B43136014
S1132120204B1B68DB03FBD51F4A204B5A801F4BF7
S11321305B78DB09FBD101221D4B1A701C4B1B7809
S1132140DB07FBD41A4B5B7EDB09F7D1194B1B6809
S1132150DB081B02E022D200134017490A684968D1
S11321604901D20E0A43FF210A401343104A138542
S11321705378F0398B4301210B4353700A23D370F6
S113218093880E491940C0239B000B43938002237C
S11321901370074B5B7EDB09FBD1054B1878800776
S11321A0C00F7047200400401E400000000C004097
S11321B0004000422460800020608000FFF8FFFFA0
S11321C00222024B1A7301207047C04600400042AD
S11321D0054B1A7802218A431A7018788007C00FB9
S11321E001235840C0B2704700400042024B187EA1
S11321F0C007C00F7047C0460040004210B51F23FF
S113220018400D4A13691F218B43184310610A4B70
S11322105B7EDB09FBD1094B9847074A137B0121FD
S11322200B43DBB21373064B98470028FBD0024BD9
S1132230588B80B210BDC04600400042C12100004E
S1132240ED21000010B5044B984780239B02034AFC
S11322501360034A136010BD492300000044004189
S11322601444004110B584B096208001214B984756
S11322702148224B98472248224B9847224B9847A3
S1132280002806D021481F4B984721481B4B9847EC
S11322900EE020481B4B984702E01F48194B984713
S11322A004B010BD1D48174B98471D48134B984761
S11322B01C4B98470028F0D01B48124B98471B4BE7
S11322C098470028FBD01320194B98470A2201A9EC
S11322D0184B984718480B4CA04701A8A04717482B
S11322E0A047174B98470028DCD01648054B984761
S11322F0DBE7C046A1250000DC503400B92400000F
S1132300102C00006526000015210000402C000060
S113231093760A00602C00009C2C0000E82C00003E
S113232025511604C1210000802C0000ED2100007D
S1132330FD21000011290000BC2C0000B82C000075
S1132340D1210000CC2C000030B5504A53681E2126
S11323508B431C390B435360082204231A43802304
S11323609B0013439BB24A4A9382938A0B43938202
S1132370474BDB689B07FBD50123802149001943A8
S113238044488160A022D2001A4380235B021A438E
S113239080239B02134343603E4B5B78DB09FBD1F4
S11323A08023DB018022520013433A4A5380384B86
S11323B0DB68DB06FBD50222354B9A84344BDB68A1
S11323C0DB06FBD5344B354A1A43F823DB051343AC
S11323D02F4AD3622E4BDB68DB06FBD5304B1A68E1
S11323E02B498B6A920E92022E48034013438B6250
S11323F0274BDB68DB06FBD5254A938C2A490B4324
S11324009384244880231B03802292028021490262
S1132410E024E40021430A43134343601D4B5B78EB
S1132420DB09FBD1214C80231B068022D2058021AD
S11324304905E020C00488256D02284301430A436E
S11324401343A362124B1A6A19490A401A621A6AA0
S113245080218A431A620323803119430D48816025
S1132460C022D2001A4380235B021A4380239B02BA
S113247013434360074B5B78DB09FBD10D4B002210
S11324801A725A729A72DA7230BDC0460040004124
S113249000080040000C00400000FF01B9050000E6
S11324A024608000FF03FFFF040800000044004193
S11324B0FFFCFFFF00040040BFF35F8F01380028DA
S11324C0FAD17047FEE70000F8B5234A234B9A423D
S11324D009D0224B204A03E0116819600433043206
S11324E01F498B42F8D31F4B02E000221A600433C9
S11324F01D4A9342F9D31D4AFF211D4B8B43936020
S1132500FD3990235B001B4AD1501B4AD378032525
S1132510AB4302242343D370D3780C27BB43082650
S11325203343D370154B987B3022904320221043C1
S11325309873997BB943314399739A7BAA43224395
S11325409A730F4A516880230B4353600D4B98478D
S11325500D4B9847FEE7C046602D000000000020A8
S11325602C0400202C0400206C04002000ED00E06A
S1132570002000000070004100500041004800416C
S113258000400041992800008D25000010B5024B41
S11325909847024B9847FCE745220000652200005B
S11325A070B5224A136820210B431360204A214B43
S11325B05A80214B8022D2039A605622995C0126CC
S11325C03143C9B299543B24195D473A91430222DD
S11325D011431955802212045A6057215D5C04226C
S11325E095435D545A5C3243D2B25A54195D0F225A
S11325F00A4020210A431A55104C114B2360C02372
S11326009B02636003071B1A18010E4B9C4660442F
S1132610010C00040B4A00230B4DA84780B2A08193
S1132620236802221343236070BDC0462004004087
S113263017400000000C0040004400410014004218
S113264004001040006CDC0281260000034B1B7860
S1132650002BFBD080B2024B188070471814004244
S11326602814004270B50500002402E0034B98478B
S11326700134285D0028F9D170BDC0464D26000004
S1132680002B11D1002A0FD1002900D1002802D03B
S11326900021C943081C07B4024802A14018029053
S11326A003BDC0469D01000003B4684601B502980D
S11326B000F006F8019B9E4602B00CBC7047C04671
S11326C0F0B557464E464546DE46E0B5040083B0B5
S11326D00D00924699468B422FD82CD0494650463D
S11326E000F0B0F829000600200000F0ABF8331A1F
S11326F09846203B9B4600D574E053465A46934087
S11327001F005346424693401E00AF4229D826D0AC
S11327105B46A41BBD41002B00DA79E000220023B4
S11327200092019301235A469340019301234246A8
S11327309340009319E08242D0D9002200230092F2
S113274001930C9B002B01D01C605D6000980199E3
S113275003B03CBC90469946A246AB46F0BDA342AA
S1132760D6D900220023009201934346002BE8D0DF
S1132770FB0772081A4346467B080EE0AB4201D1C0
S1132780A2420CD8A41A9D41012024196D410021B4
S1132790013E24184D41002E06D0AB42EED9013E35
S11327A024196D41002EF8D15B4600980199001957
S11327B06941002B22DB2B005A46D3402A004446B1
S11327C0E2401C005B461500002B2CDB26009E40DB
S11327D0330026004746BE403200801A99410090DB
S11327E00191AEE7424620239B1A5246DA40414605
S11327F013004A468A4017001F4382E742462023BB
S11328009B1A2A0046469A402300F3401343D5E717
S11328104246202300219B1A0022009101920122AA
S1132820DA40019282E74246202326009B1ADE40CA
S11328302F00B446974066463B003343C9E7C04681
S11328407047C04610B5002903D100F007F82030C6
S113285002E0081C00F002F810BDC0461C21012350
S11328601B04984201D3000C10391B0A984201D36F
S1132870000A08391B09984201D30009043902A24D
S1132880105C40187047C0460403020201010101B4
S1132890000000000000000070B50D4E0D4D002436
S11328A0AD1BAD1005D0A300F35801349847A542E1
S11328B0F9D100F03FFA084E084D0024AD1BAD10CD
S11328C005D0A300F35801349847A542F9D170BD4F
S11328D0402D0000402D0000402D0000482D000038
S11328E0931E10B50C00222B0ED80A2A05D0002105
S11328F0611800F011F8200010BD0028F7DA2D232C
S113290040420B700121F3E7002300200B70F3E732
S113291010B5FFF7E5FF10BDF0B54646D6464F4665
S1132920C0B58AB090466A461D4B0D00060013CB15
S113293013C213CB13C213CB13C21B78EA46137012
S11329404346023B2F000024222B01D924E04C46AD
S1132950631C30004146994600F056F953465B5CCF
S113296030003B70414600F0C9F80137061EEED135
S11329704B46E8540023002C07D0EA5C295DE95457
S11329802A550133013CA342F7DB28000AB01CBCE2
S113299090469946A246F0BD2C700020F6E7C0464A
S11329A00C2D0000034B10B5002B02D0024800F0A0
S11329B005F810BD00000000CD29000010B501008D
S11329C000230022002000F01FF810BD70B5094B51
S11329D0094CE41AA41009D0084AA518AD00ED1852
S11329E02B68013C9847043D002CF9D100F0ACF968
S11329F070BDC046542D0000582D0000FFFFFF3F5E
S1132A007047C0467047C046F0B54E464546DE4660
S1132A105746E0B5364D83B00600286898460F0047
S1132A209146FFF7EDFF334B1C68A4235B00E0588D
S1132A30002852D043681F2B13DC5A1C0192002E2D
S1132A4028D1019A02339B0042601F502868FFF787
S1132A50D9FF002003B03CBC90469946A246AB4641
S1132A60F0BD254B002B3DD0C820400000E000BF46
S1132A70002837D0A42200235200A15843600160EB
S1132A80A050403283500432835001330193002319
S1132A90002ED6D09A00924682444A468821544653
S1132AA06250C4225200914681444A468739994073
S1132AB012688B460A4394464A4661461160842252
S1132AC041465200A150022EBBD102005C468D3219
S1132AD0FF3211680C431460B3E720004D30FF301F
S1132AE0E050A7E72868FFF78DFF01204042B1E7D7
S1132AF028040020082D00000000000000224308E4
S1132B008B4274D303098B425FD3030A8B4244D3B1
S1132B10030B8B4228D3030C8B420DD3FF220902F3
S1132B2012BA030C8B4202D31212090265D0030BB2
S1132B308B4219D300E0090AC30B8B4201D3CB03A8
S1132B40C01A5241830B8B4201D38B03C01A5241EA
S1132B50430B8B4201D34B03C01A5241030B8B42EC
S1132B6001D30B03C01A5241C30A8B4201D3CB02D7
S1132B70C01A5241830A8B4201D38B02C01A5241BC
S1132B80430A8B4201D34B02C01A5241030A8B42BF
S1132B9001D30B02C01A5241CDD2C3098B4201D3D7
S1132BA0CB01C01A524183098B4201D38B01C01A55
S1132BB0524143098B4201D34B01C01A52410309CC
S1132BC08B4201D30B01C01A5241C3088B4201D37B
S1132BD0CB00C01A524183088B4201D38B00C01A28
S1132BE0524143088B4201D34B00C01A5241411A4F
S1132BF000D20146524110467047FFE701B500205C
S1132C00FFF71EFE02BDC0460029F7D076E77047E5
S1132C105541525420496E697469616C697A6564DE
S1132C20207375636365737366756C6C7920617466
S1132C30203936303020626175642E0D0A000000A0
S1132C4041444320496E697469616C697A65642002
S1132C507375636365737366756C6C792E0D0A0006
S1132C6041444320496E697469616C697A6174698D
S1132C706F6E206661696C65642E0D0A00000000A9
S1132C8041444320436F6E76657273696F6E2053BF
S1132C907461727465642E0D0A000000414443207F
S1132CA0436F6E76657273696F6E205374617274CC
S1132CB0204661696C65642E0D0A0000414443207E
S1132CC052656164696E673A200000004144432004
S1132CD0436F6E76657273696F6E2053746F707094
S1132CE065642E0D0A00000041444320436F6E7654
S1132CF0657273696F6E2053746F70204661696CDE
S1132D0065642E0D0A0000000000002030313233CB
S1132D103435363738396162636465666768696A71
S1132D206B6C6D6E6F707172737475767778797A77
S1132D3000000000F8B5C046F8BC08BC9E467047C9
S1132D40A5290000DD200000F8B5C046F8BC08BC89
S10B2D509E467047B520000007
S10B2D5868F9FF7F010000008F
S1132D6000000000EC02002054030020BC030020FB
S1132D70000000000000000000000000000000004F
S1132D80000000000000000000000000000000003F
S1132D90000000000000000000000000000000002F
S1132DA0000000000000000000000000000000001F
S1132DB0000000000000000000000000000000000F
S1132DC000000000000000000000000000000000FF
S1132DD000000000000000000000000000000000EF
S1132DE000000000000000000000000000000000DF
S1132DF000000000000000000000000000000000CF
S1132E0000000000000000000100000000000000BD
S1132E100E33CDAB34126DE6ECDE05000B00000082
S1132E20000000000000000000000000000000009E
S1132E30000000000000000000000000000000008E
S1132E40000000000000000000000000000000007E
S1132E50000000000000000000000000000000006E
S10F3180000000000000000048040020D3
S9032000DC
